{
  "_format": "hh-sol-artifact-1",
  "contractName": "AvalancheSolanaBridge",
  "sourceName": "contracts/AvalancheSolanaBridge.sol",
  "abi": [
    {
      "inputs": [],
      "stateMutability": "nonpayable",
      "type": "constructor"
    },
    {
      "inputs": [
        {
          "internalType": "address",
          "name": "owner",
          "type": "address"
        }
      ],
      "name": "OwnableInvalidOwner",
      "type": "error"
    },
    {
      "inputs": [
        {
          "internalType": "address",
          "name": "account",
          "type": "address"
        }
      ],
      "name": "OwnableUnauthorizedAccount",
      "type": "error"
    },
    {
      "inputs": [
        {
          "internalType": "address",
          "name": "token",
          "type": "address"
        }
      ],
      "name": "SafeERC20FailedOperation",
      "type": "error"
    },
    {
      "anonymous": false,
      "inputs": [
        {
          "indexed": true,
          "internalType": "bytes32",
          "name": "transactionId",
          "type": "bytes32"
        }
      ],
      "name": "BridgeCompleted",
      "type": "event"
    },
    {
      "anonymous": false,
      "inputs": [
        {
          "indexed": true,
          "internalType": "bytes32",
          "name": "transactionId",
          "type": "bytes32"
        },
        {
          "indexed": true,
          "internalType": "address",
          "name": "token",
          "type": "address"
        },
        {
          "indexed": false,
          "internalType": "uint256",
          "name": "amount",
          "type": "uint256"
        },
        {
          "indexed": false,
          "internalType": "bytes32",
          "name": "solanaAddress",
          "type": "bytes32"
        }
      ],
      "name": "BridgeInitiated",
      "type": "event"
    },
    {
      "anonymous": false,
      "inputs": [
        {
          "indexed": true,
          "internalType": "address",
          "name": "previousOwner",
          "type": "address"
        },
        {
          "indexed": true,
          "internalType": "address",
          "name": "newOwner",
          "type": "address"
        }
      ],
      "name": "OwnershipTransferred",
      "type": "event"
    },
    {
      "inputs": [
        {
          "internalType": "address",
          "name": "token",
          "type": "address"
        }
      ],
      "name": "addSupportedToken",
      "outputs": [],
      "stateMutability": "nonpayable",
      "type": "function"
    },
    {
      "inputs": [
        {
          "internalType": "bytes32",
          "name": "transactionId",
          "type": "bytes32"
        }
      ],
      "name": "completeBridge",
      "outputs": [],
      "stateMutability": "nonpayable",
      "type": "function"
    },
    {
      "inputs": [
        {
          "internalType": "address",
          "name": "token",
          "type": "address"
        },
        {
          "internalType": "uint256",
          "name": "amount",
          "type": "uint256"
        },
        {
          "internalType": "bytes32",
          "name": "solanaAddress",
          "type": "bytes32"
        }
      ],
      "name": "initiateBridge",
      "outputs": [],
      "stateMutability": "nonpayable",
      "type": "function"
    },
    {
      "inputs": [],
      "name": "owner",
      "outputs": [
        {
          "internalType": "address",
          "name": "",
          "type": "address"
        }
      ],
      "stateMutability": "view",
      "type": "function"
    },
    {
      "inputs": [
        {
          "internalType": "address",
          "name": "token",
          "type": "address"
        }
      ],
      "name": "removeSupportedToken",
      "outputs": [],
      "stateMutability": "nonpayable",
      "type": "function"
    },
    {
      "inputs": [],
      "name": "renounceOwnership",
      "outputs": [],
      "stateMutability": "nonpayable",
      "type": "function"
    },
    {
      "inputs": [
        {
          "internalType": "address",
          "name": "",
          "type": "address"
        }
      ],
      "name": "supportedTokens",
      "outputs": [
        {
          "internalType": "bool",
          "name": "",
          "type": "bool"
        }
      ],
      "stateMutability": "view",
      "type": "function"
    },
    {
      "inputs": [
        {
          "internalType": "bytes32",
          "name": "",
          "type": "bytes32"
        }
      ],
      "name": "transactions",
      "outputs": [
        {
          "internalType": "address",
          "name": "token",
          "type": "address"
        },
        {
          "internalType": "uint256",
          "name": "amount",
          "type": "uint256"
        },
        {
          "internalType": "bytes32",
          "name": "solanaAddress",
          "type": "bytes32"
        },
        {
          "internalType": "bool",
          "name": "completed",
          "type": "bool"
        }
      ],
      "stateMutability": "view",
      "type": "function"
    },
    {
      "inputs": [
        {
          "internalType": "address",
          "name": "newOwner",
          "type": "address"
        }
      ],
      "name": "transferOwnership",
      "outputs": [],
      "stateMutability": "nonpayable",
      "type": "function"
    },
    {
      "inputs": [
        {
          "internalType": "address",
          "name": "token",
          "type": "address"
        },
        {
          "internalType": "uint256",
          "name": "amount",
          "type": "uint256"
        }
      ],
      "name": "withdrawTokens",
      "outputs": [],
      "stateMutability": "nonpayable",
      "type": "function"
    }
  ],
  "bytecode": "0x608060405234801561001057600080fd5b5033600073ffffffffffffffffffffffffffffffffffffffff168173ffffffffffffffffffffffffffffffffffffffff16036100845760006040517f1e4fbdf700000000000000000000000000000000000000000000000000000000815260040161007b919061019e565b60405180910390fd5b6100938161009960201b60201c565b506101b9565b60008060009054906101000a900473ffffffffffffffffffffffffffffffffffffffff169050816000806101000a81548173ffffffffffffffffffffffffffffffffffffffff021916908373ffffffffffffffffffffffffffffffffffffffff1602179055508173ffffffffffffffffffffffffffffffffffffffff168173ffffffffffffffffffffffffffffffffffffffff167f8be0079c531659141344cd1fd0a4f28419497f9722a3daafe3b4186f6b6457e060405160405180910390a35050565b600073ffffffffffffffffffffffffffffffffffffffff82169050919050565b60006101888261015d565b9050919050565b6101988161017d565b82525050565b60006020820190506101b3600083018461018f565b92915050565b610f9c806101c86000396000f3fe608060405234801561001057600080fd5b506004361061009e5760003560e01c8063763191901161006657806376319190146101485780638b2d3dd9146101645780638da5cb5b14610180578063dd25e3591461019e578063f2fde38b146101ba5761009e565b806306b091f9146100a3578063642f2eaf146100bf57806368c4ac26146100f25780636d69fcaf14610122578063715018a61461013e575b600080fd5b6100bd60048036038101906100b89190610ab9565b6101d6565b005b6100d960048036038101906100d49190610b2f565b610214565b6040516100e99493929190610ba4565b60405180910390f35b61010c60048036038101906101079190610be9565b610271565b6040516101199190610c16565b60405180910390f35b61013c60048036038101906101379190610be9565b610291565b005b6101466102f4565b005b610162600480360381019061015d9190610be9565b610308565b005b61017e60048036038101906101799190610b2f565b61036b565b005b61018861042a565b6040516101959190610c31565b60405180910390f35b6101b860048036038101906101b39190610c4c565b610453565b005b6101d460048036038101906101cf9190610be9565b6106a4565b005b6101de61072a565b6102106101e961042a565b828473ffffffffffffffffffffffffffffffffffffffff166107b19092919063ffffffff16565b5050565b60016020528060005260406000206000915090508060000160009054906101000a900473ffffffffffffffffffffffffffffffffffffffff16908060010154908060020154908060030160009054906101000a900460ff16905084565b60026020528060005260406000206000915054906101000a900460ff1681565b61029961072a565b6001600260008373ffffffffffffffffffffffffffffffffffffffff1673ffffffffffffffffffffffffffffffffffffffff16815260200190815260200160002060006101000a81548160ff02191690831515021790555050565b6102fc61072a565b6103066000610830565b565b61031061072a565b6000600260008373ffffffffffffffffffffffffffffffffffffffff1673ffffffffffffffffffffffffffffffffffffffff16815260200190815260200160002060006101000a81548160ff02191690831515021790555050565b61037361072a565b60006001600083815260200190815260200160002090508060030160009054906101000a900460ff16156103dc576040517f08c379a00000000000000000000000000000000000000000000000000000000081526004016103d390610cfc565b60405180910390fd5b60018160030160006101000a81548160ff021916908315150217905550817ff858475f6ceaf814cde2c67e14c95826e45be5bfd12b07fdb49acbf06ca75a6760405160405180910390a25050565b60008060009054906101000a900473ffffffffffffffffffffffffffffffffffffffff16905090565b600260008473ffffffffffffffffffffffffffffffffffffffff1673ffffffffffffffffffffffffffffffffffffffff16815260200190815260200160002060009054906101000a900460ff166104df576040517f08c379a00000000000000000000000000000000000000000000000000000000081526004016104d690610d68565b60405180910390fd5b60008211610522576040517f08c379a000000000000000000000000000000000000000000000000000000000815260040161051990610dd4565b60405180910390fd5b61054f3330848673ffffffffffffffffffffffffffffffffffffffff166108f4909392919063ffffffff16565b6000423385858560405160200161056a959493929190610e7e565b60405160208183030381529060405280519060200120905060405180608001604052808573ffffffffffffffffffffffffffffffffffffffff168152602001848152602001838152602001600015158152506001600083815260200190815260200160002060008201518160000160006101000a81548173ffffffffffffffffffffffffffffffffffffffff021916908373ffffffffffffffffffffffffffffffffffffffff160217905550602082015181600101556040820151816002015560608201518160030160006101000a81548160ff0219169083151502179055509050508373ffffffffffffffffffffffffffffffffffffffff16817f3cf49dfc4654a9b8707bda342f40cc20be41175ca8262a407d4ae0453dbe09448585604051610696929190610edd565b60405180910390a350505050565b6106ac61072a565b600073ffffffffffffffffffffffffffffffffffffffff168173ffffffffffffffffffffffffffffffffffffffff160361071e5760006040517f1e4fbdf70000000000000000000000000000000000000000000000000000000081526004016107159190610c31565b60405180910390fd5b61072781610830565b50565b610732610976565b73ffffffffffffffffffffffffffffffffffffffff1661075061042a565b73ffffffffffffffffffffffffffffffffffffffff16146107af57610773610976565b6040517f118cdaa70000000000000000000000000000000000000000000000000000000081526004016107a69190610c31565b60405180910390fd5b565b61082b838473ffffffffffffffffffffffffffffffffffffffff1663a9059cbb85856040516024016107e4929190610f06565b604051602081830303815290604052915060e01b6020820180517bffffffffffffffffffffffffffffffffffffffffffffffffffffffff838183161783525050505061097e565b505050565b60008060009054906101000a900473ffffffffffffffffffffffffffffffffffffffff169050816000806101000a81548173ffffffffffffffffffffffffffffffffffffffff021916908373ffffffffffffffffffffffffffffffffffffffff1602179055508173ffffffffffffffffffffffffffffffffffffffff168173ffffffffffffffffffffffffffffffffffffffff167f8be0079c531659141344cd1fd0a4f28419497f9722a3daafe3b4186f6b6457e060405160405180910390a35050565b610970848573ffffffffffffffffffffffffffffffffffffffff166323b872dd86868660405160240161092993929190610f2f565b604051602081830303815290604052915060e01b6020820180517bffffffffffffffffffffffffffffffffffffffffffffffffffffffff838183161783525050505061097e565b50505050565b600033905090565b600080602060008451602086016000885af1806109a1576040513d6000823e3d81fd5b3d9250600051915050600082146109bc5760018114156109d8565b60008473ffffffffffffffffffffffffffffffffffffffff163b145b15610a1a57836040517f5274afe7000000000000000000000000000000000000000000000000000000008152600401610a119190610c31565b60405180910390fd5b50505050565b600080fd5b600073ffffffffffffffffffffffffffffffffffffffff82169050919050565b6000610a5082610a25565b9050919050565b610a6081610a45565b8114610a6b57600080fd5b50565b600081359050610a7d81610a57565b92915050565b6000819050919050565b610a9681610a83565b8114610aa157600080fd5b50565b600081359050610ab381610a8d565b92915050565b60008060408385031215610ad057610acf610a20565b5b6000610ade85828601610a6e565b9250506020610aef85828601610aa4565b9150509250929050565b6000819050919050565b610b0c81610af9565b8114610b1757600080fd5b50565b600081359050610b2981610b03565b92915050565b600060208284031215610b4557610b44610a20565b5b6000610b5384828501610b1a565b91505092915050565b610b6581610a45565b82525050565b610b7481610a83565b82525050565b610b8381610af9565b82525050565b60008115159050919050565b610b9e81610b89565b82525050565b6000608082019050610bb96000830187610b5c565b610bc66020830186610b6b565b610bd36040830185610b7a565b610be06060830184610b95565b95945050505050565b600060208284031215610bff57610bfe610a20565b5b6000610c0d84828501610a6e565b91505092915050565b6000602082019050610c2b6000830184610b95565b92915050565b6000602082019050610c466000830184610b5c565b92915050565b600080600060608486031215610c6557610c64610a20565b5b6000610c7386828701610a6e565b9350506020610c8486828701610aa4565b9250506040610c9586828701610b1a565b9150509250925092565b600082825260208201905092915050565b7f5472616e73616374696f6e20616c726561647920636f6d706c65746564000000600082015250565b6000610ce6601d83610c9f565b9150610cf182610cb0565b602082019050919050565b60006020820190508181036000830152610d1581610cd9565b9050919050565b7f546f6b656e206e6f7420737570706f7274656400000000000000000000000000600082015250565b6000610d52601383610c9f565b9150610d5d82610d1c565b602082019050919050565b60006020820190508181036000830152610d8181610d45565b9050919050565b7f416d6f756e74206d7573742062652067726561746572207468616e2030000000600082015250565b6000610dbe601d83610c9f565b9150610dc982610d88565b602082019050919050565b60006020820190508181036000830152610ded81610db1565b9050919050565b6000819050919050565b610e0f610e0a82610a83565b610df4565b82525050565b60008160601b9050919050565b6000610e2d82610e15565b9050919050565b6000610e3f82610e22565b9050919050565b610e57610e5282610a45565b610e34565b82525050565b6000819050919050565b610e78610e7382610af9565b610e5d565b82525050565b6000610e8a8288610dfe565b602082019150610e9a8287610e46565b601482019150610eaa8286610e46565b601482019150610eba8285610dfe565b602082019150610eca8284610e67565b6020820191508190509695505050505050565b6000604082019050610ef26000830185610b6b565b610eff6020830184610b7a565b9392505050565b6000604082019050610f1b6000830185610b5c565b610f286020830184610b6b565b9392505050565b6000606082019050610f446000830186610b5c565b610f516020830185610b5c565b610f5e6040830184610b6b565b94935050505056fea2646970667358221220ba95a02a74bcb80f347206c01347508878cfdf69208c42205212f0b5784ea45764736f6c63430008140033",
  "linkReferences": {},
  "deployedLinkReferences": {}
}